:100000008CC00000B8C00000B6C00000B4C0000042
:10001000B2C00000B0C00000AEC00000ACC0000024
:10002000AAC00000A8C00000A6C00000A4C0000034
:10003000A2C00000A0C000009EC000009CC0000044
:100040009AC0000098C0000096C0000094C0000054
:1000500092C0000090C000008EC00000FFC40000ED
:100060008AC00000C5C400009AC4000084C000001B
:1000700082C0000080C000007EC000007CC0000084
:100080007AC0000078C0000076C0000074C0000094
:1000900050C4000025C400006EC000006CC0000009
:1000A0006AC0000068C0000066C0000064C00000B4
:1000B00062C0000060C000005EC000005CC00000C4
:1000C0005AC0000058C0000056C0000054C00000D4
:1000D00052C0000050C000004EC000004CC00000E4
:1000E0004AC00000417665726167652074696D657C
:1000F0002070657220697465726174696F6E3A2050
:1001000000546F74616C2074696D6520696E206D98
:100110006963726F733A2000780511241FBECFEF18
:10012000D1E2DEBFCDBF00E00CBF23E0A2E4B2E02D
:1001300001C01D92AD3CB207E1F712E0A0E0B2E0D1
:10014000E4E3F1E100E00BBF02C007900D92A2349E
:10015000B107D9F710E0CDE8D0E000E005C0219765
:100160000109802FFE01D8D7CC38D10780E00807DD
:10017000B1F723D5DDC744CFE8EEF2E0A089B1891D
:1001800082E08C93A485B5851C92A685B78580E115
:100190008C93108EA489B58986E08C93A289B3894B
:1001A0008C9180618C93A289B3898C9188608C93A7
:1001B000A289B3898C9180688C930288F389E02DA1
:1001C00080818F7D80830895CF92DF92EF92FF929E
:1001D0000F931F932FB7F894C0904702D090480216
:1001E000E0904902F0904A022FBFDC01CB018C0D58
:1001F0009D1DAE1DBF1D4FB7F89400914702109191
:1002000048022091490230914A024FBF0C151D054A
:100210002E053F0528F080179107A207B30758F76E
:100220001F910F91FF90EF90DF90CF900895CF92A4
:10023000DF92EF92FF920F931F93CF93DF936C01A6
:100240007A018B01C0E0D0E0CE15DF0581F0D80146
:100250006D918D01D601ED91FC910190F081E02D21
:10026000C6011995892B11F02196EECF7E01C701A9
:10027000DF91CF911F910F91FF90EF90DF90CF9082
:100280000895089580E090E00895FC01538D448D19
:10029000252F30E0842F90E0821B930B541710F031
:1002A000CF96089501970895FC01918D828D98173E
:1002B00061F0828DDF01A80FB11D5D968C91928D4A
:1002C0009F5F9F73928F90E008958FEF9FEF089547
:1002D000FC01918D828D981731F0828DE80FF11D10
:1002E000858D90E008958FEF9FEF0895FC01918D2B
:1002F000228D892F90E0805C9F4F821B91098F7324
:10030000992708958BE492E0F1DF21E0892B09F42D
:1003100020E0822F089588EE92E0E8DF21E0892B2B
:1003200009F420E0822F0895FC01848DDF01A80FDD
:10033000B11DA35ABF4F2C91848D90E001968F730D
:100340009927848FA689B7892C93A089B1898C912C
:10035000837080648C93938D848D981306C002887B
:10036000F389E02D80818F7D80830895EF92FF9245
:100370000F931F93CF93DF93EC0181E0888F9B8DC8
:100380008C8D981305C0E889F989808185FD25C089
:10039000F62E0B8D10E00F5F1F4F0F731127E02E0D
:1003A0008C8DE8120BC00FB607FCFACFE889F989EB
:1003B000808185FFF5CFCE01B7DFF2CF8B8DFE01B7
:1003C000E80FF11DE35AFF4FF0829FB7F8940B8FAF
:1003D000EA89FB89808180620AC09FB7F894EE8920
:1003E000FF896083E889F9898081837080648083D4
:1003F0009FBF81E090E0DF91CF911F910F91FF901F
:10040000EF900895B3CF0F931F93CF93DF938C0199
:10041000C0E0D0E0F801EC0FFD1F6491662339F0D5
:1004200088EE92E0A3DF892B11F02196F3CFCE0165
:10043000DF91CF911F910F910895CF93DF93EC013E
:10044000888D8823C1F0EA89FB89808185FD05C0FC
:10045000A889B9898C9186FD0EC00FB607FCF5CF2F
:10046000808185FFF2CFA889B9898C9185FFEDCF76
:10047000CE015ADFE8CFDF91CF91089580E090E080
:10048000892B19F048DF811120C080E090E0892B92
:1004900019F038DF81111CC080E090E0892B41F019
:1004A00080E090E0892B21F00E940000811113C0B0
:1004B00080E090E0892BA1F080E090E0892B81F032
:1004C0000E94000081110AC008950E940000DDCF43
:1004D0000E940000E1CF0E940000EACF0C940000CF
:1004E00008953FB7F8948091430290914402A091FF
:1004F0004502B091460226B5A89B05C02F3F19F0D2
:100500000196A11DB11D3FBFBA2FA92F982F882793
:10051000820F911DA11DB11DBC01CD0142E0660FEE
:10052000771F881F991F4A95D1F70895FDD561154A
:10053000710579F0FB0101900020E9F73197AF01D7
:10054000461B570BDC01ED91FC910280F381E02DFD
:10055000199480E090E008958F929F92AF92BF929D
:10056000EF92FF920F931F93CF93DF93CDB7DEB738
:10057000A1970FB6F894DEBF0FBECDBF7C01FA0184
:10058000CB0119A2223008F42AE08E010F5D1F4F23
:10059000822E912CA12CB12CBF01A501940199D4DC
:1005A000F901CA01015011096A3014F4605D01C0FB
:1005B000695CD8016C93232B242B252B69F7B80198
:1005C000C701B5DFA1960FB6F894DEBF0FBECDBF51
:1005D000DF91CF911F910F91FF90EF90BF90AF905F
:1005E0009F908F9008954F925F926F927F928F921B
:1005F0009F92AF92BF92CF92DF92EF92FF920F93B2
:100600001F93CF93DF93CDB7DEB7C05DD7400FB652
:10061000F894DEBF0FBECDBF1092C9031092CA037B
:100620001092CB031092CC03109287031092880390
:100630001092890310928A0368EB7BE080E090E0DF
:10064000C3DD88EE92E09093C8038093C70394DDE6
:100650002FB7F8948091470290914802A0914902E7
:10066000B0914A022FBF8093870390938803A09391
:100670008903B0938A0362E172E08091C70390918D
:10068000C80355DF6AE070E080E090E09DDD81E026
:1006900080939B0371DD64E272E088EE92E047DFB5
:1006A00061E272E088EE92E042DF1BDF6B017C01C9
:1006B0008E010F5F1F4FF80180E090E081939193CE
:1006C0000296803D27E09207C9F70BDF9B01AC0142
:1006D0002C193D094E095F0969017A0161E272E056
:1006E00088EE92E024DF81E091E08DDE2AE0B70120
:1006F000A60188EE92E030DF61E272E088EE92E0DF
:1007000016DF84EE90E07FDEC701B601CDD220E097
:1007100030E04AE754E464D46B017C014B015C0196
:100720009B01AC01F5D4882319F065E372E018C091
:1007300026013701E89477F82FEF3FEF4FE75FE7A7
:10074000C301B201E5D481110FC02FEF3FEF4FE796
:100750005FE7C301B201A4D2181634F469E372E072
:1007600088EE92E0E4DE6DC02FEF3FEF4FE75FE4ED
:10077000C701B601C9D418161CF46DE372E0F0CFBE
:100780002FEF3FEF4FE75FECC701B60189D287FD3E
:10079000F4CF20E030E0A901C701B60181D287FF84
:1007A0000AC06DE288EE92E02DDE46015701B7FAED
:1007B000B094B7F8B0942AE037ED43EA5BE3C501A3
:1007C000B401AAD34B015C0173D46B017C016CD2E0
:1007D0009B01AC01C501B4019ED34B015C012AE031
:1007E000B701A60188EE92E0B7DE6EE288EE92E0F5
:1007F00009DE20E030E040E251E4C501B401B5D2A9
:100800004B015C0155D46B01E12CF12C2AE0B701BE
:10081000A60188EE92E0A0DEC701B60145D29B0199
:10082000AC01C501B40177D320E030E040E251E4EF
:100830009CD23ED4AB0160E070E02AE088EE92E00A
:100840008BDE61E272E088EE92E071DE61E272E0DE
:1008500088EE92E06CDE5E013FE2A31A38EFB30A45
:10086000F801C190D1908F010D2C000CEE08FF080B
:10087000F7FE0DC06DE28BE492E0C4DD44275527FE
:10088000BA014C195D096E097F092AE003C02AE00C
:10089000B701A6018BE492E05FDE6CE28BE492E0AC
:1008A000B1DD60E28BE492E0ADDDA016B106C1F6E9
:1008B000C053D84F0FB6F894DEBF0FBECDBFDF9147
:1008C000CF911F910F91FF90EF90DF90CF90BF904D
:1008D000AF909F908F907F906F905F904F90089512
:1008E0001F920F920FB60F9211240BB60F922F93F7
:1008F0003F934F935F936F937F938F939F93AF93A8
:10090000BF93EF93FF938BE492E00EDDFF91EF91A5
:10091000BF91AF919F918F917F916F915F914F9117
:100920003F912F910F900BBE0F900FBE0F901F9015
:1009300018951F920F920FB60F9211240BB60F92BB
:100940002F938F939F93EF93FF93E0915B02F0912E
:100950005C028081E0916102F091620282FD12C02E
:100960009081809164028F5F8F732091650282175E
:1009700051F0E0916402F0E0E55BFD4F958F8093CC
:10098000640201C08081FF91EF919F918F912F911F
:100990000F900BBE0F900FBE0F901F9018951F92D7
:1009A0000F920FB60F9211240BB60F922F933F9315
:1009B0004F935F936F937F938F939F93AF93BF9367
:1009C000EF93FF9388EE92E0AFDCFF91EF91BF9140
:1009D000AF919F918F917F916F915F914F913F91D7
:1009E0002F910F900BBE0F900FBE0F901F90189578
:1009F0001F920F920FB60F9211240BB60F922F93E6
:100A00008F939F93EF93FF93E091F802F091F90297
:100A10008081E091FE02F091FF0282FD12C0908180
:100A2000809101038F5F8F7320910203821751F031
:100A3000E0910103F0E0E851FD4F958F80930103B1
:100A400001C08081FF91EF919F918F912F910F9025
:100A50000BBE0F900FBE0F901F9018951F920F9214
:100A60000FB60F9211242F933F938F939F93AF93C1
:100A7000BF938091470290914802A0914902B091A2
:100A80004A023091420223E0230F2D3720F40196D1
:100A9000A11DB11D05C026E8230F0296A11DB11DA1
:100AA000209342028093470290934802A093490208
:100AB000B0934A028091430290914402A091450272
:100AC000B09146020196A11DB11D809343029093FF
:100AD0004402A0934502B0934602BF91AF919F910B
:100AE0008F913F912F910F900FBE0F901F901895EF
:100AF000EBE4F2E01382128248EE53E060E070E033
:100B0000448355836683778384E092E09183808376
:100B10002DEC30E0358724872CEC30E037872687B2
:100B200028EC30E0318B208B29EC30E0338B228BAA
:100B30002AEC30E0358B248B2EEC30E0378B268B83
:100B4000118E128E138E148EE8EEF2E01382128252
:100B500044835583668377839183808385EC90E01B
:100B60009587848784EC90E09787868780EC90E077
:100B7000918B808B81EC90E0938B828B82EC90E068
:100B8000958B848B86EC90E0978B868B118E128EE2
:100B9000138E148EE5E8F3E0168217821086118614
:100BA000128613861486158616861786108A118A71
:100BB000128A138A148A158A0895789484B58260FB
:100BC00084BD84B5816084BD85B5826085BD85B5F1
:100BD000816085BD80916E00816080936E0010926F
:100BE00081008091810082608093810080918100EA
:100BF000816080938100809180008160809380007B
:100C00008091B10084608093B1008091B0008160D8
:100C10008093B000809191008260809391008091D8
:100C20009100816080939100809190008160809319
:100C300090008091A10082608093A1008091A1002A
:100C400081608093A1008091A00081608093A000CA
:100C50008091210182608093210180912101816036
:100C600080932101809120018160809320018091F7
:100C70007A00846080937A0080917A008260809309
:100C80007A0080917A00816080937A0080917A0066
:100C9000806880937A001092C100A5DCEFDBFECF64
:100CA00040D008F481E00895E89409C097FB3EF431
:100CB00090958095709561957F4F8F4F9F4F9923A9
:100CC000A9F0F92F96E9BB279395F6958795779527
:100CD0006795B795F111F8CFFAF4BB0F11F460FFE7
:100CE0001BC06F5F7F4F8F4F9F4F16C0882311F03F
:100CF00096E911C0772321F09EE8872F762F05C053
:100D0000662371F096E8862F70E060E02AF09A95ED
:100D1000660F771F881FDAF7880F9695879597F9E2
:100D20000895990F0008550FAA0BE0E8FEEF16167C
:100D30001706E807F907C0F012161306E407F507CF
:100D400098F0621B730B840B950B39F40A2661F043
:100D5000232B242B252B21F408950A2609F4A140E6
:100D6000A6958FEF811D811D08950BD078C069D0A5
:100D700028F06ED018F0952309F05AC05FC01124F6
:100D8000A2C07ED0A0F3959FD1F3950F50E0551FE0
:100D9000629FF001729FBB27F00DB11D639FAA27D0
:100DA000F00DB11DAA1F649F6627B00DA11D661F1F
:100DB000829F2227B00DA11D621F739FB00DA11D40
:100DC000621F839FA00D611D221F749F3327A00DFA
:100DD000611D231F849F600D211D822F762F6A2F96
:100DE00011249F5750408AF0E1F088234AF0EE0F1B
:100DF000FF1FBB1F661F771F881F91505040A9F728
:100E00009E3F510570F014C05EC05F3FECF3983E0A
:100E1000DCF3869577956795B795F795E7959F5F8E
:100E2000C1F7FE2B880F911D9695879597F9089528
:100E300097F99F6780E870E060E008959FEF80EC8D
:100E4000089500240A941616170618060906089530
:100E500000240A9412161306140605060895092E96
:100E60000394000C11F4882352F0BB0F40F4BF2B05
:100E700011F460FF04C06F5F7F4F8F4F9F4F089545
:100E800057FD9058440F551F59F05F3F71F047953B
:100E9000880F97FB991F61F09F3F79F08795089520
:100EA000121613061406551FF2CF4695F1DF08C03F
:100EB000161617061806991FF1CF8695710561055C
:100EC00008940895E894BB2766277727CB0197F904
:100ED0000895A1E21A2EAA1BBB1BFD010DC0AA1F7B
:100EE000BB1FEE1FFF1FA217B307E407F50720F093
:100EF000A21BB30BE40BF50B661F771F881F991F0E
:100F00001A9469F760957095809590959B01AC0156
:100F1000BD01CF0108955058BB27AA270ED09FCFFF
:100F200090DF30F095DF20F031F49F3F11F41EF494
:100F300085CF0EF4E095E7FB7BCFE92FA1DF80F3AF
:100F4000BA17620773078407950718F071F49EF5C6
:100F5000B9CF0EF4E0950B2EBA2FA02D0B01B901DD
:100F600090010C01CA01A0011124FF27591B99F01F
:100F7000593F50F4503E68F11A16F040A22F232F2B
:100F8000342F4427585FF3CF469537952795A7957B
:100F9000F0405395C9F77EF41F16BA0B620B730B22
:100FA000840BBAF09150A1F0FF0FBB1F661F771F93
:100FB000881FC2F70EC0BA0F621F731F841F48F448
:100FC000879577956795B795F7959E3F08F0B3CFCE
:100FD0009395880F08F09927EE0F979587950895B8
:100FE0000CD03DCF35DF40F02CDF30F021F45F3FF7
:100FF00019F01ECF511167CF21CF42DF98F399230B
:10100000C9F35523B1F3951B550BBB27AA276217CC
:101010007307840738F09F5F5F4F220F331F441F11
:10102000AA1FA9F333D00E2E3AF0E0E830D0915049
:101030005040E695001CCAF729D0FE2F27D0660F36
:10104000771F881FBB1F261737074807AB07B0E875
:1010500009F0BB0B802DBF01FF2793585F4F2AF08B
:101060009E3F510568F0E4CE2ECF5F3FECF3983EF3
:10107000DCF3869577956795B795F7959F5FC9F7E8
:10108000880F911D9695879597F90895E1E0660F71
:10109000771F881FBB1F621773078407BA0720F0EA
:1010A000621B730B840BBA0BEE1F88F7E095089553
:1010B000EFDE88F09F5790F0B92F9927B751A0F035
:1010C000D1F0660F771F881F991F1AF0BA95C9F7DC
:1010D00012C0B13081F0F6DEB1E00895F3CE672F93
:1010E000782F8827B85F39F0B93FCCF3869577958C
:1010F0006795B395D9F73EF4909580957095619575
:101100007F4F8F4F9F4F08950CDE08F48FEF0895A7
:1011100008DE880B990B0895EE0FFF1F881F8BBF09
:101120000790F691E02D199481E090E0F89400C0CA
:04113000F894FFCF61
:1011340000000000B601170145011D0276015401AB
:101144006801564D4450565F317C315F564D4450D2
:10115400560D0A005374617274696E672074657366
:10116400742E2E2E006E616E00696E66006F7666B8
:02117400000079
:00000001FF
