:100000008CC00000B8C00000B6C00000B4C0000042
:10001000B2C00000B0C00000AEC00000ACC0000024
:10002000AAC00000A8C00000A6C00000A4C0000034
:10003000A2C00000A0C000009EC000009CC0000044
:100040009AC0000098C0000096C0000094C0000054
:1000500092C0000090C000008EC000008AC4000062
:100060008AC0000050C4000025C4000084C0000005
:1000700082C0000080C000007EC000007CC0000084
:100080007AC0000078C0000076C0000074C0000094
:10009000DBC30000B0C300006EC000006CC00000F5
:1000A0006AC0000068C0000066C0000064C00000B4
:1000B00062C0000060C000005EC000005CC00000C4
:1000C0005AC0000058C0000056C0000054C00000D4
:1000D00052C0000050C000004EC000004CC00000E4
:1000E0004AC00000417665726167652074696D657C
:1000F0002070657220697465726174696F6E3A2050
:1001000000546F74616C2074696D6520696E206D98
:100110006963726F733A2000030511241FBECFEF8D
:10012000D1E2DEBFCDBF00E00CBF12E0A0E0B2E044
:10013000E6E2F0E100E00BBF02C007900D92A232B0
:10014000B107D9F723E0A2E2B2E001C01D92A536C3
:10015000B207E1F710E0CDE8D0E000E005C021975C
:100160000109802FFE0151D7CC38D10780E0080764
:10017000B1F79CD456C744CFCF92DF92EF92FF9253
:100180000F931F93CF93DF936C017A018B01C0E033
:10019000D0E0CE15DF0581F0D8016D918D01D6013B
:1001A000ED91FC910190F081E02DC6011995892B0C
:1001B00011F02196EECF7E01C701DF91CF911F9103
:1001C0000F91FF90EF90DF90CF900895089580E019
:1001D00090E00895FC01538D448D252F30E0842F4D
:1001E00090E0821B930B541710F0CF96089501975F
:1001F0000895FC01918D828D981761F0828DDF0149
:10020000A80FB11D5D968C91928D9F5F9F73928F09
:1002100090E008958FEF9FEF0895FC01918D828DFE
:10022000981731F0828DE80FF11D858D90E00895CB
:100230008FEF9FEF0895FC01918D228D892F90E023
:10024000805C9F4F821B91098F73992708958BE2E1
:1002500092E0F1DF21E0892B09F420E0822F08955C
:1002600088EC92E0E8DF21E0892B09F420E0822F7E
:100270000895FC01848DDF01A80FB11DA35ABF4F63
:100280002C91848D90E001968F739927848FA68995
:10029000B7892C93A089B1898C91837080648C93E9
:1002A000938D848D981306C00288F389E02D808198
:1002B0008F7D80830895EF92FF920F931F93CF93CA
:1002C000DF93EC0181E0888F9B8D8C8D981305C0A6
:1002D000E889F989808185FD25C0F62E0B8D10E017
:1002E0000F5F1F4F0F731127E02E8C8DE8120BC08C
:1002F0000FB607FCFACFE889F989808185FFF5CF31
:10030000CE01B7DFF2CF8B8DFE01E80FF11DE35A6E
:10031000FF4FF0829FB7F8940B8FEA89FB898081A9
:1003200080620AC09FB7F894EE89FF896083E889EC
:10033000F98980818370806480839FBF81E090E031
:10034000DF91CF911F910F91FF90EF900895B3CF60
:100350000F931F93CF93DF938C01C0E0D0E0F8019F
:10036000EC0FFD1F6491662339F088EC92E0A3DF67
:10037000892B11F02196F3CFCE01DF91CF911F9100
:100380000F910895CF93DF93EC01888D8823C1F0FE
:10039000EA89FB89808185FD05C0A889B9898C918E
:1003A00086FD0EC00FB607FCF5CF808185FFF2CF2A
:1003B000A889B9898C9185FFEDCFCE015ADFE8CFAE
:1003C000DF91CF91089580E090E0892B19F048DF0C
:1003D000811120C080E090E0892B19F038DF811175
:1003E0001CC080E090E0892B41F080E090E0892BF8
:1003F00021F00E940000811113C080E090E0892B61
:10040000A1F080E090E0892B81F00E940000811132
:100410000AC008950E940000DDCF0E940000E1CFD5
:100420000E940000EACF0C94000008953FB7F894B2
:100430008091270290912802A0912902B0912A026E
:1004400026B5A89B05C02F3F19F00196A11DB11D2F
:100450003FBFBA2FA92F982F8827820F911DA11D6A
:10046000B11DBC01CD0142E0660F771F881F991FA7
:100470004A95D1F708956115710549F0FB01019086
:100480000020E9F73197AF01461B570B75CE80E08E
:1004900090E008958F929F92AF92BF92EF92FF9259
:1004A0000F931F93CF93DF93CDB7DEB7A1970FB60E
:1004B000F894DEBF0FBECDBF7C01FA01CB0119A2BB
:1004C000223008F42AE08E010F5D1F4F822E912CFE
:1004D000A12CB12CBF01A501940175D5F901CA0168
:1004E000015011096A3014F4605D01C0695CD801E3
:1004F0006C93232B242B252B69F7B801C701BBDF95
:10050000A1960FB6F894DEBF0FBECDBFDF91CF919D
:100510001F910F91FF90EF90BF90AF909F908F90A1
:1005200008957BD54F925F926F927F928F929F92A8
:10053000AF92BF92CF92DF92EF92FF920F931F93F1
:10054000CF93DF93CDB7DEB7C051D7420FB6F89443
:10055000DEBF0FBECDBFE091D802F091D90282E09C
:100560008083E091D402F091D5021082E091D6020E
:10057000F091D70280E180831092E002E091DC02EA
:10058000F091DD0286E08083E091DA02F091DB02F7
:10059000808180618083E091DA02F091DB028081CA
:1005A00088608083E091DA02F091DB0280818068CC
:1005B0008083E091DA02F091DB0280818F7D80837D
:1005C00035DF6B017C018E010F5F1F4FF80180E06A
:1005D00090E0819391930296803127E29207C9F7C8
:1005E00025DF9B01AC012C193D094E095F0969010A
:1005F0007A0162E172E088EC92E03DDF81E091E017
:10060000A7DE2AE0B701A60188EC92E043DF62E1B1
:1006100072E088EC92E02FDF84EE90E099DEC70173
:10062000B601B4D320E030E44CE955E41BD36B01B0
:100630007C014B015C019B01AC01C1D4882319F002
:1006400065E172E018C026013701E89477F82FEFD2
:100650003FEF4FE75FE7C301B201B1D481110FC093
:100660002FEF3FEF4FE75FE7C301B201F7D2181654
:1006700034F469E172E088EC92E0FDDE6DC02FEFAA
:100680003FEF4FE75FE4C701B60132D418161CF400
:100690006DE172E0F0CF2FEF3FEF4FE75FECC70166
:1006A000B601DCD287FDF4CF20E030E0A901C7011C
:1006B000B601D4D287FF0AC06DE288EC92E047DE33
:1006C00046015701B7FAB094B7F8B0942AE037ED75
:1006D00043EA5BE3C501B4015DD24B015C012AD35F
:1006E0006B017C0153D39B01AC01C501B40151D214
:1006F0004B015C012AE0B701A60188EC92E0CADE5A
:100700006EE288EC92E023DE20E030E040E251E44B
:10071000C501B401F1D34B015C010CD36B01E12C99
:10072000F12C2AE0B701A60188EC92E0B3DEC70104
:10073000B6012CD39B01AC01C501B4012AD220E043
:1007400030E040E251E4D8D3F5D2AB0160E070E094
:100750002AE088EC92E09EDE62E172E088EC92E0B2
:100760008ADE62E172E088EC92E085DE5E013FEEB7
:10077000A31A38EDB30AF801C190D1908F010D2C66
:10078000000CEE08FF08F7FE0DC06DE28BE292E070
:10079000DEDD44275527BA014C195D096E097F0932
:1007A0002AE003C02AE0B701A6018BE292E072DEE4
:1007B0006CE28BE292E0CBDD60E28BE292E0C7DD9F
:1007C000A016B106C1F6C05FD84D0FB6F894DEBFD3
:1007D0000FBECDBFDF91CF911F910F91FF90EF9092
:1007E000DF90CF90BF90AF909F908F907F906F9051
:1007F0005F904F9008951F920F920FB60F921124A1
:100800000BB60F922F933F934F935F936F937F930A
:100810008F939F93AF93BF93EF93FF938BE292E0FD
:1008200028DDFF91EF91BF91AF919F918F917F91C3
:100830006F915F914F913F912F910F900BBE0F9051
:100840000FBE0F901F9018951F920F920FB60F9228
:1008500011240BB60F922F938F939F93EF93FF93D7
:10086000E0913B02F0913C028081E0914102F091E5
:10087000420282FD12C09081809144028F5F8F738B
:1008800020914502821751F0E0914402F0E0E55DCD
:10089000FD4F958F8093440201C08081FF91EF91BD
:1008A0009F918F912F910F900BBE0F900FBE0F90C5
:1008B0001F9018951F920F920FB60F9211240BB62E
:1008C0000F922F933F934F935F936F937F938F93E9
:1008D0009F93AF93BF93EF93FF9388EC92E0C9DCB3
:1008E000FF91EF91BF91AF919F918F917F916F9108
:1008F0005F914F913F912F910F900BBE0F900FBEC4
:100900000F901F9018951F920F920FB60F921124FF
:100910000BB60F922F938F939F93EF93FF93E091DA
:10092000D802F091D9028081E091DE02F091DF02DD
:1009300082FD12C090818091E1028F5F8F732091C0
:10094000E202821751F0E091E102F0E0E853FD4F3E
:10095000958F8093E10201C08081FF91EF919F917B
:100960008F912F910F900BBE0F900FBE0F901F9085
:1009700018951F920F920FB60F9211242F933F9349
:100980008F939F93AF93BF93809123029091240202
:10099000A0912502B09126023091220223E0230F7C
:1009A0002D3720F40196A11DB11D05C026E8230FA7
:1009B0000296A11DB11D20932202809323029093E1
:1009C0002402A0932502B0932602809127029091E1
:1009D0002802A0912902B0912A020196A11DB11D01
:1009E0008093270290932802A0932902B0932A02B1
:1009F000BF91AF919F918F913F912F910F900FBE1B
:100A00000F901F901895EBE2F2E01382128248EEED
:100A100053E060E070E0448355836683778384E02D
:100A200092E0918380832DEC30E0358724872CEC95
:100A300030E03787268728EC30E0318B208B29EC9B
:100A400030E0338B228B2AEC30E0358B248B2EEC7C
:100A500030E0378B268B118E128E138E148EE8ECBD
:100A6000F2E01382128244835583668377839183F5
:100A7000808385EC90E09587848784EC90E097876D
:100A8000868780EC90E0918B808B81EC90E0938B5B
:100A9000828B82EC90E0958B848B86EC90E0978B38
:100AA000868B118E128E138E148E0895789484B5D1
:100AB000826084BD84B5816084BD85B5826085BD5A
:100AC00085B5816085BD80916E00816080936E00E8
:100AD00010928100809181008260809381008091DA
:100AE000810081608093810080918000816080938B
:100AF00080008091B10084608093B1008091B0004B
:100B000081608093B0008091910082608093910019
:100B1000809191008160809391008091900081602C
:100B2000809390008091A10082608093A1008091C9
:100B3000A10081608093A1008091A00081608093DA
:100B4000A000809121018260809321018091210188
:100B50008160809321018091200181608093200138
:100B600080917A00846080937A0080917A0082601C
:100B700080937A0080917A00816080937A008091DE
:100B80007A00806880937A001092C100CBDC1BDC75
:100B9000FECF5058BB27AA270ED070C161D130F0CC
:100BA00066D120F031F49F3F11F41EF456C10EF4CB
:100BB000E095E7FB4CC1E92F72D180F3BA176207C9
:100BC00073078407950718F071F49EF58AC10EF437
:100BD000E0950B2EBA2FA02D0B01B90190010C014D
:100BE000CA01A0011124FF27591B99F0593F50F465
:100BF000503E68F11A16F040A22F232F342F4427BD
:100C0000585FF3CF469537952795A795F0405395B4
:100C1000C9F77EF41F16BA0B620B730B840BBAF084
:100C20009150A1F0FF0FBB1F661F771F881FC2F7EF
:100C30000EC0BA0F621F731F841F48F48795779503
:100C40006795B795F7959E3F08F0B3CF9395880FBA
:100C500008F09927EE0F979587950895D4D008F45A
:100C600081E008950CD00AC102D140F0F9D030F0F3
:100C700021F45F3F19F0EBC0511134C1EEC00FD128
:100C800098F39923C9F35523B1F3951B550BBB2753
:100C9000AA2762177307840738F09F5F5F4F220F00
:100CA000331F441FAA1FA9F333D00E2E3AF0E0E8F9
:100CB00030D091505040E695001CCAF729D0FE2F45
:100CC00027D0660F771F881FBB1F261737074807D7
:100CD000AB07B0E809F0BB0B802DBF01FF2793588D
:100CE0005F4F2AF09E3F510568F0B1C0FBC05F3FE7
:100CF000ECF3983EDCF3869577956795B795F79575
:100D00009F5FC9F7880F911D9695879597F908956C
:100D1000E1E0660F771F881FBB1F62177307840708
:100D2000BA0720F0621B730B840BBA0BEE1F88F717
:100D3000E0950895BCD088F09F5790F0B92F99277F
:100D4000B751A0F0D1F0660F771F881F991F1AF0D6
:100D5000BA95C9F712C0B13081F0C3D0B1E008959F
:100D6000C0C0672F782F8827B85F39F0B93FCCF320
:100D7000869577956795B395D9F73EF490958095CC
:100D8000709561957F4F8F4F9F4F0895E89409C0EC
:100D900097FB3EF490958095709561957F4F8F4FAE
:100DA0009F4F9923A9F0F92F96E9BB279395F695C4
:100DB000879577956795B795F111F8CFFAF4BB0F42
:100DC00011F460FF1BC06F5F7F4F8F4F9F4F16C0A6
:100DD000882311F096E911C0772321F09EE8872F30
:100DE000762F05C0662371F096E8862F70E060E0EC
:100DF0002AF09A95660F771F881FDAF7880F969565
:100E0000879597F90895990F0008550FAA0BE0E808
:100E1000FEEF16161706E807F907C0F012161306BC
:100E2000E407F50798F0621B730B840B950B39F4FC
:100E30000A2661F0232B242B252B21F408950A2662
:100E400009F4A140A6958FEF811D811D089597F9A2
:100E50009F6780E870E060E008959FEF80EC089560
:100E600000240A9416161706180609060895002489
:100E70000A9412161306140605060895092E039403
:100E8000000C11F4882352F0BB0F40F4BF2B11F477
:100E900060FF04C06F5F7F4F8F4F9F4F089557FDD6
:100EA0009058440F551F59F05F3F71F04795880FD8
:100EB00097FB991F61F09F3F79F08795089512166F
:100EC00013061406551FF2CF4695F1DF08C016161B
:100ED00017061806991FF1CF8695710561050894CC
:100EE0000895E894BB2766277727CB0197F90895E3
:100EF0008ADF08F48FEF08950BD0C0CFB1DF28F060
:100F0000B6DF18F0952309F0A2CFA7CF1124EACFBE
:100F1000C6DFA0F3959FD1F3950F50E0551F629F58
:100F2000F001729FBB27F00DB11D639FAA27F00D42
:100F3000B11DAA1F649F6627B00DA11D661F829F69
:100F40002227B00DA11D621F739FB00DA11D621F4E
:100F5000839FA00D611D221F749F3327A00D611D6B
:100F6000231F849F600D211D822F762F6A2F11244D
:100F70009F5750408AF0E1F088234AF0EE0FFF1FA0
:100F8000BB1F661F771F881F91505040A9F79E3FD7
:100F9000510570F05CCFA6CF5F3FECF3983EDCF3D9
:100FA000869577956795B795F795E7959F5FC1F714
:100FB000FE2B880F911D9695879597F9089523DF4D
:100FC000880B990B0895A1E21A2EAA1BBB1BFD01E9
:100FD0000DC0AA1FBB1FEE1FFF1FA217B307E40718
:100FE000F50720F0A21BB30BE40BF50B661F771F70
:100FF000881F991F1A9469F7609570958095909550
:101000009B01AC01BD01CF010895EE0FFF1F881FAA
:101010008BBF0790F691E02D199481E090E0F89451
:0610200000C0F894FFCFB0
:10102600000000005B01BC00EA00C2011B01F900E0
:101036000D010D0A006E616E00696E66006F7666C0
:021046000000A8
:00000001FF
