:10000000A3C00000D1C00000CFC00000CDC00000E0
:10001000CBC00000C9C00000C7C00000C5C00000C0
:10002000C3C00000C1C00000BFC00000BDC00000D0
:10003000BBC00000B9C00000B7C00000B5C00000E0
:10004000B3C00000B1C00000AFC00000ADC00000F0
:10005000ABC00000A9C00000A7C00000FDC40000A4
:10006000A3C00000C3C4000098C400009DC00000ED
:100070009BC0000099C0000097C0000095C0000020
:1000800093C0000091C000008FC000008DC0000030
:100090004EC4000023C4000087C0000085C00000DB
:1000A00083C0000081C000007FC000007DC0000050
:1000B0007BC0000079C0000077C0000075C0000060
:1000C00073C0000071C000006FC000006DC0000070
:1000D0006BC0000069C0000067C0000065C0000080
:1000E00063C00000084AD73B3BCE016E84BCBFFD15
:1000F000C12F3D6C74319ABD56833DDA3D00C77FF8
:1001000011BED9E4BB4C3E916BAAAABE0000008090
:100110003F00417665726167652074696D65207086
:10012000657220697465726174696F6E3A2000545B
:100130006F74616C2074696D6520696E206D6963F0
:10014000726F733A2000760511241FBECFEFD1E203
:10015000DEBFCDBF00E00CBF12E0A0E0B2E0E8E6F9
:10016000F2E100E00BBF02C007900D92A233B1078D
:10017000D9F723E0A2E3B2E001C01D92A537B20790
:10018000E1F710E0C4EAD0E000E006C021970109E1
:10019000802FFE010E942609C33AD10780E008079C
:1001A000A9F7F7D40C9432092BCFCF92DF92EF92BC
:1001B000FF920F931F93CF93DF936C017A018B0112
:1001C000C0E0D0E0CE15DF0581F0D8016D918D0142
:1001D000D601ED91FC910190F081E02DC6011995B9
:1001E000892B11F02196EECF7E01C701DF91CF91CF
:1001F0001F910F91FF90EF90DF90CF900895089599
:1002000080E090E00895FC01538D448D252F30E06F
:10021000842F90E0821B930B541710F0CF96089513
:1002200001970895FC01918D828D981761F0828D60
:10023000DF01A80FB11D5D968C91928D9F5F9F731A
:10024000928F90E008958FEF9FEF0895FC01918DBC
:10025000828D981731F0828DE80FF11D858D90E029
:1002600008958FEF9FEF0895FC01918D228D892FC6
:1002700090E0805C9F4F821B91098F7399270895AE
:100280008BE392E0F1DF21E0892B09F420E0822F5B
:10029000089588ED92E0E8DF21E0892B09F420E061
:1002A000822F0895FC01848DDF01A80FB11DA35A90
:1002B000BF4F2C91848D90E001968F739927848F86
:1002C000A689B7892C93A089B1898C9183708064A9
:1002D0008C93938D848D981306C00288F389E02D4A
:1002E00080818F7D80830895EF92FF920F931F93FB
:1002F000CF93DF93EC0181E0888F9B8D8C8D9813D9
:1003000005C0E889F989808185FD25C0F62E0B8D11
:1003100010E00F5F1F4F0F731127E02E8C8DE81236
:100320000BC00FB607FCFACFE889F989808185FFF9
:10033000F5CFCE01B7DFF2CF8B8DFE01E80FF11DB7
:10034000E35AFF4FF0829FB7F8940B8FEA89FB893D
:10035000808180620AC09FB7F894EE89FF8960832C
:10036000E889F98980818370806480839FBF81E000
:1003700090E0DF91CF911F910F91FF90EF90089542
:10038000B3CF0F931F93CF93DF938C01C0E0D0E0E6
:10039000F801EC0FFD1F6491662339F088ED92E0BF
:1003A000A3DF892B11F02196F3CFCE01DF91CF91FE
:1003B0001F910F910895CF93DF93EC01888D8823CF
:1003C000C1F0EA89FB89808185FD05C0A889B989CA
:1003D0008C9186FD0EC00FB607FCF5CF808185FF9E
:1003E000F2CFA889B9898C9185FFEDCFCE015ADF74
:1003F000E8CFDF91CF91089580E090E0892B19F04C
:1004000048DF811120C080E090E0892B19F038DFAF
:1004100081111CC080E090E0892B41F080E090E0E9
:10042000892B21F00E940000811113C080E090E030
:10043000892BA1F080E090E0892B81F00E940000E0
:1004400081110AC008950E940000DDCF0E940000C3
:10045000E1CF0E940000EACF0C94000008953FB75E
:10046000F8948091370290913802A0913902B091AE
:100470003A0226B5A89B05C02F3F19F00196A11D91
:10048000B11D3FBFBA2FA92F982F8827820F911D2A
:10049000A11DB11DBC01CD0142E0660F771F881F71
:1004A000991F4A95D1F708956115710549F0FB012F
:1004B00001900020E9F73197AF01461B570B75CE2D
:1004C00080E090E008958F929F92AF92BF92EF925A
:1004D000FF920F931F93CF93DF93CDB7DEB7A19712
:1004E0000FB6F894DEBF0FBECDBF7C01FA01CB0181
:1004F00019A2223008F42AE08E010F5D1F4F822ED0
:10050000912CA12CB12CBF01A50194017DD6F9013C
:10051000CA01015011096A3014F4605D01C0695CC0
:10052000D8016C93232B242B252B69F7B801C70125
:10053000BBDFA1960FB6F894DEBF0FBECDBFDF9133
:10054000CF911F910F91FF90EF90BF90AF909F9030
:100550008F9008957F928F929F92AF92BF92CF9289
:10056000DF92EF92FF920F931F93CF93DF938C0153
:100570006A017B01722E9A01AB01C701B6012BD62D
:10058000882319F062E172E024C046015701E89423
:10059000B7F82FEF3FEF4FE75FE7C501B4011BD678
:1005A00081110CC02FEF3FEF4FE75FE7C501B401AA
:1005B000F0D318161CF466E172E00BC02FEF3FEF8A
:1005C0004FE75FE4C701B60153D518168CF46AE112
:1005D00072E0C801DF91CF911F910F91FF90EF90D2
:1005E000DF90CF90BF90AF909F908F907F905CCF27
:1005F0002FEF3FEF4FE75FECC701B601CAD387FD8E
:10060000E6CF20E030E0A901C701B601C2D387FFE1
:1006100009C06DE2C801B4DEEC01F7FAF094F7F816
:10062000F09402C0C0E0D0E0B12C60E070E080E067
:100630009FE37B1439F020E030E040E251E4ADD399
:10064000B394F7CFA701960118D36B017C010DD4A9
:100650004B015C012AE0AB01BC01C80134DFC80FCB
:10066000D91F772081F1C501B4012BD49B01AC01C6
:10067000C701B60101D36B017C016EE2C80180DEC7
:10068000C80FD91F20E030E040E251E4C701B601B5
:10069000FAD44B015C01E9D36B01E12CF12C2AE087
:1006A000B701A601C8010FDFC80FD91FC701B601E6
:1006B00008D49B01AC01C501B401DED26B017C0101
:1006C0007A947110DFCFCE01DF91CF911F910F91FE
:1006D000FF90EF90DF90CF90BF90AF909F908F9062
:1006E0007F900895BBD52F923F924F925F926F9269
:1006F0007F928F929F92AF92BF92CF92DF92EF92B2
:10070000FF920F931F93CF93DF93CDB7DEB7C25DF8
:10071000D7400FB6F894DEBF0FBECDBFE091E80220
:10072000F091E90282E08083E091E402F091E50239
:100730001082E091E602F091E70280E1808310925E
:10074000F002E091EC02F091ED0286E08083E0910E
:10075000EA02F091EB02808180618083E091EA02FD
:10076000F091EB02808188608083E091EA02F09151
:10077000EB02808180688083E091EA02F091EB02D5
:1007800080818F7D80836EE172E088ED92E08CDE67
:100790006FE272E088ED92E087DE61DE4B015C0182
:1007A000CE0101961C01CF52D84F99838883C15D39
:1007B000D74000E010E0B801012E000C880B990B27
:1007C00082D36B017C01BDD22B013C01A7019601B4
:1007D000C701B60158D4BED49B01AC01C301B2011C
:1007E000DCD2CF52D84FE881F981C15DD740619307
:1007F000719381939193CF52D84FF983E883C15D70
:10080000D7400F5F1F4F043FF1E01F07A1F627DE1F
:100810006B017C01C818D908EA08FB086FE272E096
:1008200088ED92E041DE8FE291E0ABDD2AE0B70196
:10083000A60188ED92E047DE6FE272E088ED92E07B
:1008400033DE82E191E09DDDC701B6013AD320E0BD
:1008500030E04AEF53E4A1D2AB01BC0122E088EDC5
:1008600092E078DE6FE272E088ED92E01DDE6FE2EA
:1008700072E088ED92E018DE8E010F52184FF10100
:1008800041915191619171911F0122E08BE392E0BE
:1008900061DE6CE28BE392E073DD60E28BE392E079
:1008A0006FDD0215130559F7CE52D84F0FB6F894E5
:1008B000DEBF0FBECDBFDF91CF911F910F91FF9093
:1008C000EF90DF90CF90BF90AF909F908F907F90F0
:1008D0006F905F904F903F902F9008951F920F92CE
:1008E0000FB60F9211240BB60F922F933F934F9395
:1008F0005F936F937F938F939F93AF93BF93EF9388
:10090000FF938BE392E0CEDCFF91EF91BF91AF912B
:100910009F918F917F916F915F914F913F912F9117
:100920000F900BBE0F900FBE0F901F9018951F9247
:100930000F920FB60F9211240BB60F922F938F9335
:100940009F93EF93FF93E0914B02F0914C028081D3
:10095000E0915102F091520282FD12C0908180918B
:1009600054028F5F8F7320915502821751F0E091EE
:100970005402F0E0E55CFD4F958F8093540201C076
:100980008081FF91EF919F918F912F910F900BBEDE
:100990000F900FBE0F901F9018951F920F920FB6D9
:1009A0000F9211240BB60F922F933F934F935F93A7
:1009B0006F937F938F939F93AF93BF93EF93FF9327
:1009C00088ED92E06FDCFF91EF91BF91AF919F9125
:1009D0008F917F916F915F914F913F912F910F90E8
:1009E0000BBE0F900FBE0F901F9018951F920F9285
:1009F0000FB60F9211240BB60F922F938F939F93E4
:100A0000EF93FF93E091E802F091E9028081E09199
:100A1000EE02F091EF0282FD12C090818091F1020E
:100A20008F5F8F732091F202821751F0E091F102F3
:100A3000F0E0E852FD4F958F8093F10201C0808174
:100A4000FF91EF919F918F912F910F900BBE0F907F
:100A50000FBE0F901F9018951F920F920FB60F9216
:100A600011242F933F938F939F93AF93BF938091C4
:100A7000330290913402A0913502B0913602309148
:100A8000320223E0230F2D3720F40196A11DB11D62
:100A900005C026E8230F0296A11DB11D2093320246
:100AA0008093330290933402A0933502B0933602C0
:100AB0008091370290913802A0913902B0913A02A8
:100AC0000196A11DB11D8093370290933802A09327
:100AD0003902B0933A02BF91AF919F918F913F91AC
:100AE0002F910F900FBE0F901F901895EBE3F2E03F
:100AF0001382128248EE53E060E070E04483558335
:100B00006683778384E092E0918380832DEC30E0EC
:100B1000358724872CEC30E03787268728EC30E0B7
:100B2000318B208B29EC30E0338B228B2AEC30E0A8
:100B3000358B248B2EEC30E0378B268B118E128E6A
:100B4000138E148EE8EDF2E01382128244835583F3
:100B5000668377839183808385EC90E09587848793
:100B600084EC90E09787868780EC90E0918B808B77
:100B700081EC90E0938B828B82EC90E0958B848B60
:100B800086EC90E0978B868B118E128E138E148ECE
:100B90000895789484B5826084BD84B5816084BDF5
:100BA00085B5826085BD85B5816085BD80916E000B
:100BB000816080936E00109281008091810082603C
:100BC0008093810080918100816080938100809179
:100BD00080008160809380008091B1008460809368
:100BE000B1008091B00081608093B000809191004D
:100BF0008260809391008091910081608093910048
:100C0000809190008160809390008091A10082602B
:100C10008093A1008091A10081608093A1008091C8
:100C2000A00081608093A000809121018260809368
:100C30002101809121018160809321018091200117
:100C400081608093200180917A00846080937A0093
:100C500080917A00826080937A0080917A0081602E
:100C600080937A0080917A00806880937A00109255
:100C7000C10039DDC1DBFECF5058BB27AA270ED0FB
:100C8000BDC1AED130F0B3D120F031F49F3F11F4AB
:100C90001EF47EC10EF4E095E7FB74C1E92FBFD1CD
:100CA00080F3BA17620773078407950718F071F489
:100CB0009EF5D7C10EF4E0950B2EBA2FA02D0B0197
:100CC000B90190010C01CA01A0011124FF27591B91
:100CD00099F0593F50F4503E68F11A16F040A22F97
:100CE000232F342F4427585FF3CF46953795279508
:100CF000A795F0405395C9F77EF41F16BA0B620B07
:100D0000730B840BBAF09150A1F0FF0FBB1F661F4D
:100D1000771F881FC2F70EC0BA0F621F731F841F90
:100D200048F4879577956795B795F7959E3F08F0B6
:100D3000B3CF9395880F08F09927EE0F9795879575
:100D40000895DF93DD27B92FBF7740E85FE31616DC
:100D5000170648075B0710F4D92F8ED19F938F9306
:100D60007F936F9335D2E4EEF0E015D147D12F9108
:100D70003F914F915F9193D1DD2349F09058A2EAC2
:100D80002AED3FE049EC5FE3D0785D2787DFDF9114
:100D900035C1D4D008F481E008950CD02FC127D1FB
:100DA00040F01ED130F021F45F3F19F0EBC051113B
:100DB00059C1EEC034D198F39923C9F35523B1F347
:100DC000951B550BBB27AA2762177307840738F0BA
:100DD0009F5F5F4F220F331F441FAA1FA9F333D019
:100DE0000E2E3AF0E0E830D091505040E695001CCD
:100DF000CAF729D0FE2F27D0660F771F881FBB1F89
:100E0000261737074807AB07B0E809F0BB0B802D62
:100E1000BF01FF2793585F4F2AF09E3F510568F0AE
:100E2000B1C020C15F3FECF3983EDCF38695779527
:100E30006795B795F7959F5FC9F7880F911D9695B0
:100E4000879597F90895E1E0660F771F881FBB1F0C
:100E5000621773078407BA0720F0621B730B840BB9
:100E6000BA0BEE1F88F7E0950895E1D088F09F5700
:100E700090F0B92F9927B751A0F0D1F0660F771FE6
:100E8000881F991F1AF0BA95C9F712C0B13081F0C6
:100E9000E8D0B1E00895E5C0672F782F8827B85FC4
:100EA00039F0B93FCCF3869577956795B395D9F727
:100EB0003EF490958095709561957F4F8F4F9F4F31
:100EC0000895E89409C097FB3EF49095809570953D
:100ED00061957F4F8F4F9F4F9923A9F0F92F96E986
:100EE000BB279395F695879577956795B795F111FB
:100EF000F8CFFAF4BB0F11F460FF1BC06F5F7F4F98
:100F00008F4F9F4F16C0882311F096E911C07723A9
:100F100021F09EE8872F762F05C0662371F096E8B2
:100F2000862F70E060E02AF09A95660F771F881F81
:100F3000DAF7880F9695879597F90895990F000825
:100F4000550FAA0BE0E8FEEF16161706E807F9079B
:100F5000C0F012161306E407F50798F0621B730B36
:100F6000840B950B39F40A2661F0232B242B252BB7
:100F700021F408950A2609F4A140A6958FEF811D5A
:100F8000811D089597F99F6780E870E060E00895FB
:100F90009FEF80EC0895DF93CF931F930F93FF9201
:100FA000EF92DF927B018C01689405C0DA2EEF018D
:100FB00076D0FE01E894A591259135914591559102
:100FC000AEF3EF016BDEFE019701A801DA9479F729
:100FD000DF90EF90FF900F911F91CF91DF910895D7
:100FE00000240A9416161706180609060895002408
:100FF0000A9412161306140605060895092E039482
:10100000000C11F4882352F0BB0F40F4BF2B11F4F5
:1010100060FF04C06F5F7F4F8F4F9F4F089557FD54
:101020009058440F551F59F05F3F71F04795880F56
:1010300097FB991F61F09F3F79F0879508951216ED
:1010400013061406551FF2CF4695F1DF08C0161699
:1010500017061806991FF1CF86957105610508944A
:101060000895E894BB2766277727CB0197F9089561
:1010700065DF08F48FEF08959B01AC0160E070E03C
:1010800080E89FE38ACE0BD0B9CFAADF28F0AFDF8C
:1010900018F0952309F076CF7BCF1124E3CFBFDF83
:1010A000A0F3959FD1F3950F50E0551F629FF0017B
:1010B000729FBB27F00DB11D639FAA27F00DB11DD4
:1010C000AA1F649F6627B00DA11D661F829F22275D
:1010D000B00DA11D621F739FB00DA11D621F839FE4
:1010E000A00D611D221F749F3327A00D611D231FBA
:1010F000849F600D211D822F762F6A2F11249F5708
:1011000050408AF0E1F088234AF0EE0FFF1FBB1F2A
:10111000661F771F881F91505040A9F79E3F5105C9
:1011200070F030CF9FCF5F3FECF3983EDCF38695B5
:1011300077956795B795F795E7959F5FC1F7FE2B74
:10114000880F911D9695879597F9089511F40EF4DF
:101150001FCF45C06CDFD0F39923D9F3CEF39F574F
:10116000550B87FF4AD00024A0E640EA9001805842
:101170005695979528F4805C660F771F881F20F09E
:1011800026173707480730F4621B730B840B20299E
:1011900031294A2BA69517940794202531254A27F3
:1011A00058F7660F771F881F20F026173707480764
:1011B00030F4620B730B840B200D311D411DA09583
:1011C00081F7B901842F9158880F969587950895D6
:1011D0009B01AC0158CFB2DE880B990B08959F3F5D
:1011E00031F0915020F4879577956795B795880FE2
:1011F000911D9695879597F9089591505040660FE7
:10120000771F881FD2F70895A1E21A2EAA1BBB1BD5
:10121000FD010DC0AA1FBB1FEE1FFF1FA217B307C2
:10122000E407F50720F0A21BB30BE40BF50B661FD8
:10123000771F881F991F1A9469F76095709580959C
:1012400090959B01AC01BD01CF010895EE0FFF1FEA
:10125000881F8BBF0790F691E02D199481E090E0F4
:08126000F89400C0F894FFCFE0
:10126800000000007401D5000301DB013401120104
:1012780026016E616E00696E66006F7666005374B3
:10128800617274696E6720746573742E2E2E000D5A
:021298000A004A
:00000001FF
